{
  "_format": "hh-sol-artifact-1",
  "contractName": "DlrFactory",
  "sourceName": "contracts/DlrFactory.sol",
  "abi": [
    {
      "inputs": [],
      "name": "EnforcedPause",
      "type": "error"
    },
    {
      "inputs": [],
      "name": "ExpectedPause",
      "type": "error"
    },
    {
      "inputs": [],
      "name": "InvalidInitialization",
      "type": "error"
    },
    {
      "inputs": [],
      "name": "NotInitializing",
      "type": "error"
    },
    {
      "inputs": [
        {
          "internalType": "address",
          "name": "owner",
          "type": "address"
        }
      ],
      "name": "OwnableInvalidOwner",
      "type": "error"
    },
    {
      "inputs": [
        {
          "internalType": "address",
          "name": "account",
          "type": "address"
        }
      ],
      "name": "OwnableUnauthorizedAccount",
      "type": "error"
    },
    {
      "anonymous": false,
      "inputs": [
        {
          "indexed": true,
          "internalType": "address",
          "name": "tokenAddressA",
          "type": "address"
        },
        {
          "indexed": true,
          "internalType": "address",
          "name": "tokenAddressB",
          "type": "address"
        },
        {
          "indexed": false,
          "internalType": "address",
          "name": "mapAddress",
          "type": "address"
        },
        {
          "indexed": false,
          "internalType": "uint256",
          "name": "",
          "type": "uint256"
        }
      ],
      "name": "DrlMatchCreated",
      "type": "event"
    },
    {
      "anonymous": false,
      "inputs": [
        {
          "indexed": false,
          "internalType": "uint64",
          "name": "version",
          "type": "uint64"
        }
      ],
      "name": "Initialized",
      "type": "event"
    },
    {
      "anonymous": false,
      "inputs": [
        {
          "indexed": true,
          "internalType": "address",
          "name": "previousOwner",
          "type": "address"
        },
        {
          "indexed": true,
          "internalType": "address",
          "name": "newOwner",
          "type": "address"
        }
      ],
      "name": "OwnershipTransferred",
      "type": "event"
    },
    {
      "anonymous": false,
      "inputs": [
        {
          "indexed": false,
          "internalType": "address",
          "name": "account",
          "type": "address"
        }
      ],
      "name": "Paused",
      "type": "event"
    },
    {
      "anonymous": false,
      "inputs": [
        {
          "indexed": false,
          "internalType": "address",
          "name": "account",
          "type": "address"
        }
      ],
      "name": "Unpaused",
      "type": "event"
    },
    {
      "inputs": [
        {
          "internalType": "address",
          "name": "tokenAddressA",
          "type": "address"
        },
        {
          "internalType": "address",
          "name": "tokenAddressB",
          "type": "address"
        }
      ],
      "name": "createMatch",
      "outputs": [
        {
          "internalType": "address",
          "name": "matchAddress",
          "type": "address"
        }
      ],
      "stateMutability": "nonpayable",
      "type": "function"
    },
    {
      "inputs": [],
      "name": "getFeeAddress",
      "outputs": [
        {
          "internalType": "address",
          "name": "",
          "type": "address"
        }
      ],
      "stateMutability": "view",
      "type": "function"
    },
    {
      "inputs": [
        {
          "internalType": "address",
          "name": "tokenAddressA",
          "type": "address"
        },
        {
          "internalType": "address",
          "name": "tokenAddressB",
          "type": "address"
        }
      ],
      "name": "getMatch",
      "outputs": [
        {
          "internalType": "address",
          "name": "matchAddress",
          "type": "address"
        }
      ],
      "stateMutability": "view",
      "type": "function"
    },
    {
      "inputs": [
        {
          "internalType": "address",
          "name": "initialOwner",
          "type": "address"
        }
      ],
      "name": "initialize",
      "outputs": [],
      "stateMutability": "nonpayable",
      "type": "function"
    },
    {
      "inputs": [],
      "name": "owner",
      "outputs": [
        {
          "internalType": "address",
          "name": "",
          "type": "address"
        }
      ],
      "stateMutability": "view",
      "type": "function"
    },
    {
      "inputs": [],
      "name": "pause",
      "outputs": [],
      "stateMutability": "nonpayable",
      "type": "function"
    },
    {
      "inputs": [],
      "name": "paused",
      "outputs": [
        {
          "internalType": "bool",
          "name": "",
          "type": "bool"
        }
      ],
      "stateMutability": "view",
      "type": "function"
    },
    {
      "inputs": [],
      "name": "renounceOwnership",
      "outputs": [],
      "stateMutability": "nonpayable",
      "type": "function"
    },
    {
      "inputs": [],
      "name": "s_feeAddress",
      "outputs": [
        {
          "internalType": "address",
          "name": "",
          "type": "address"
        }
      ],
      "stateMutability": "view",
      "type": "function"
    },
    {
      "inputs": [
        {
          "internalType": "uint256",
          "name": "",
          "type": "uint256"
        }
      ],
      "name": "s_matchAddersses",
      "outputs": [
        {
          "internalType": "address",
          "name": "",
          "type": "address"
        }
      ],
      "stateMutability": "view",
      "type": "function"
    },
    {
      "inputs": [
        {
          "internalType": "address",
          "name": "",
          "type": "address"
        },
        {
          "internalType": "address",
          "name": "",
          "type": "address"
        }
      ],
      "name": "s_matchMaps",
      "outputs": [
        {
          "internalType": "address",
          "name": "",
          "type": "address"
        }
      ],
      "stateMutability": "view",
      "type": "function"
    },
    {
      "inputs": [
        {
          "internalType": "address",
          "name": "feeAddress",
          "type": "address"
        }
      ],
      "name": "setFeeAddress",
      "outputs": [],
      "stateMutability": "nonpayable",
      "type": "function"
    },
    {
      "inputs": [
        {
          "internalType": "address",
          "name": "newOwner",
          "type": "address"
        }
      ],
      "name": "transferOwnership",
      "outputs": [],
      "stateMutability": "nonpayable",
      "type": "function"
    },
    {
      "inputs": [],
      "name": "unpause",
      "outputs": [],
      "stateMutability": "nonpayable",
      "type": "function"
    }
  ],
  "bytecode": "0x608060405234801561001057600080fd5b506126db806100206000396000f3fe60806040523480156200001157600080fd5b5060043610620000ff5760003560e01c80637173394611620000995780638da5cb5b116200006f5780638da5cb5b1462000250578063c4d66de81462000272578063e459d8f91462000292578063f2fde38b14620002c857620000ff565b80637173394614620001ee5780638456cb5914620002245780638705fcd4146200023057620000ff565b80633f4ba83a11620000db5780633f4ba83a14620001925780634e7ceacb146200019e5780635c975abb14620001c0578063715018a614620001e257620000ff565b806247ef6414620001045780630fd5a41a14620001265780631e20530a146200015c575b600080fd5b6200010e620002e8565b6040516200011d919062000dcf565b60405180910390f35b6200014460048036038101906200013e919062000e22565b6200030c565b60405162000153919062000dcf565b60405180910390f35b6200017a600480360381019062000174919062000e22565b6200034e565b60405162000189919062000dcf565b60405180910390f35b6200019c62000496565b005b620001a8620004ac565b604051620001b7919062000dcf565b60405180910390f35b620001ca620004d5565b604051620001d9919062000e86565b60405180910390f35b620001ec620004fc565b005b6200020c600480360381019062000206919062000ede565b62000514565b6040516200021b919062000dcf565b60405180910390f35b6200022e62000554565b005b6200024e600480360381019062000248919062000f10565b6200056a565b005b6200025a620005ad565b60405162000269919062000dcf565b60405180910390f35b6200029060048036038101906200028a919062000f10565b620005e7565b005b620002b06004803603810190620002aa919062000e22565b6200078c565b604051620002bf919062000dcf565b60405180910390f35b620002e66004803603810190620002e0919062000f10565b62000833565b005b60008054906101000a900473ffffffffffffffffffffffffffffffffffffffff1681565b60026020528160005260406000206020528060005260406000206000915091509054906101000a900473ffffffffffffffffffffffffffffffffffffffff1681565b60008083836040516020016200036692919062000f92565b604051602081830303815290604052805190602001209050600060405180602001620003929062000d7c565b6020820181038252601f19601f820116604052509050818151602083016000f592508273ffffffffffffffffffffffffffffffffffffffff1663485cc95586866040518363ffffffff1660e01b8152600401620003f192919062000fc2565b600060405180830381600087803b1580156200040c57600080fd5b505af115801562000421573d6000803e3d6000fd5b505050508373ffffffffffffffffffffffffffffffffffffffff168573ffffffffffffffffffffffffffffffffffffffff167fb5aa31d14dac11a306ec27500ab959ed38a0db768aff4efd97043d4c0dc6b4b785426040516200048692919062001000565b60405180910390a3505092915050565b620004a0620008c0565b620004aa62000950565b565b60008060009054906101000a900473ffffffffffffffffffffffffffffffffffffffff16905090565b600080620004e2620009ca565b90508060000160009054906101000a900460ff1691505090565b62000506620008c0565b620005126000620009f2565b565b600181815481106200052557600080fd5b906000526020600020016000915054906101000a900473ffffffffffffffffffffffffffffffffffffffff1681565b6200055e620008c0565b6200056862000acb565b565b806000806101000a81548173ffffffffffffffffffffffffffffffffffffffff021916908373ffffffffffffffffffffffffffffffffffffffff16021790555050565b600080620005ba62000b45565b90508060000160009054906101000a900473ffffffffffffffffffffffffffffffffffffffff1691505090565b6000620005f362000b6d565b905060008160000160089054906101000a900460ff1615905060008260000160009054906101000a900467ffffffffffffffff1690506000808267ffffffffffffffff16148015620006425750825b9050600060018367ffffffffffffffff1614801562000678575060003073ffffffffffffffffffffffffffffffffffffffff163b145b90508115801562000687575080155b15620006bf576040517ff92ee8a900000000000000000000000000000000000000000000000000000000815260040160405180910390fd5b60018560000160006101000a81548167ffffffffffffffff021916908367ffffffffffffffff1602179055508315620007105760018560000160086101000a81548160ff0219169083151502179055505b6200071a62000b95565b620007258662000bab565b8315620007845760008560000160086101000a81548160ff0219169083151502179055507fc7f505b2f371ae2175ee4913f4499e1f2633a7b5936321eed1cdaeb6115181d260016040516200077b91906200108e565b60405180910390a15b505050505050565b6000600260008473ffffffffffffffffffffffffffffffffffffffff1673ffffffffffffffffffffffffffffffffffffffff16815260200190815260200160002060008373ffffffffffffffffffffffffffffffffffffffff1673ffffffffffffffffffffffffffffffffffffffff16815260200190815260200160002060009054906101000a900473ffffffffffffffffffffffffffffffffffffffff16905092915050565b6200083d620008c0565b600073ffffffffffffffffffffffffffffffffffffffff168173ffffffffffffffffffffffffffffffffffffffff1603620008b25760006040517f1e4fbdf7000000000000000000000000000000000000000000000000000000008152600401620008a9919062000dcf565b60405180910390fd5b620008bd81620009f2565b50565b620008ca62000bc3565b73ffffffffffffffffffffffffffffffffffffffff16620008ea620005ad565b73ffffffffffffffffffffffffffffffffffffffff16146200094e576200091062000bc3565b6040517f118cdaa700000000000000000000000000000000000000000000000000000000815260040162000945919062000dcf565b60405180910390fd5b565b6200095a62000bcb565b600062000966620009ca565b905060008160000160006101000a81548160ff0219169083151502179055507f5db9ee0a495bf2e6ff9c91a7834c1ba4fdd244a5e8aa4e537bd38aeae4b073aa620009b062000bc3565b604051620009bf919062000dcf565b60405180910390a150565b60007fcd5ed15c6e187e77e9aee88184c21f4f2182ab5827cb3b7e07fbedcd63f03300905090565b6000620009fe62000b45565b905060008160000160009054906101000a900473ffffffffffffffffffffffffffffffffffffffff169050828260000160006101000a81548173ffffffffffffffffffffffffffffffffffffffff021916908373ffffffffffffffffffffffffffffffffffffffff1602179055508273ffffffffffffffffffffffffffffffffffffffff168173ffffffffffffffffffffffffffffffffffffffff167f8be0079c531659141344cd1fd0a4f28419497f9722a3daafe3b4186f6b6457e060405160405180910390a3505050565b62000ad562000c0e565b600062000ae1620009ca565b905060018160000160006101000a81548160ff0219169083151502179055507f62e78cea01bee320cd4e420270b5ea74000d11b0c9f74754ebdbfc544b05a25862000b2b62000bc3565b60405162000b3a919062000dcf565b60405180910390a150565b60007f9016d09d72d40fdae2fd8ceac6b6234c7706214fd39c1cd1e609a0528c199300905090565b60007ff0c57e16840df040f15088dc2f81fe391c3923bec73e23a9662efc9c229c6a00905090565b62000b9f62000c52565b62000ba962000c95565b565b62000bb562000c52565b62000bc08162000ccd565b50565b600033905090565b62000bd5620004d5565b62000c0c576040517f8dfc202b00000000000000000000000000000000000000000000000000000000815260040160405180910390fd5b565b62000c18620004d5565b1562000c50576040517fd93c066500000000000000000000000000000000000000000000000000000000815260040160405180910390fd5b565b62000c5c62000d5a565b62000c93576040517fd7e6bcf800000000000000000000000000000000000000000000000000000000815260040160405180910390fd5b565b62000c9f62000c52565b600062000cab620009ca565b905060008160000160006101000a81548160ff02191690831515021790555050565b62000cd762000c52565b600073ffffffffffffffffffffffffffffffffffffffff168173ffffffffffffffffffffffffffffffffffffffff160362000d4c5760006040517f1e4fbdf700000000000000000000000000000000000000000000000000000000815260040162000d43919062000dcf565b60405180910390fd5b62000d5781620009f2565b50565b600062000d6662000b6d565b60000160089054906101000a900460ff16905090565b6115fa80620010ac83390190565b600073ffffffffffffffffffffffffffffffffffffffff82169050919050565b600062000db78262000d8a565b9050919050565b62000dc98162000daa565b82525050565b600060208201905062000de6600083018462000dbe565b92915050565b600080fd5b62000dfc8162000daa565b811462000e0857600080fd5b50565b60008135905062000e1c8162000df1565b92915050565b6000806040838503121562000e3c5762000e3b62000dec565b5b600062000e4c8582860162000e0b565b925050602062000e5f8582860162000e0b565b9150509250929050565b60008115159050919050565b62000e808162000e69565b82525050565b600060208201905062000e9d600083018462000e75565b92915050565b6000819050919050565b62000eb88162000ea3565b811462000ec457600080fd5b50565b60008135905062000ed88162000ead565b92915050565b60006020828403121562000ef75762000ef662000dec565b5b600062000f078482850162000ec7565b91505092915050565b60006020828403121562000f295762000f2862000dec565b5b600062000f398482850162000e0b565b91505092915050565b60008160601b9050919050565b600062000f5c8262000f42565b9050919050565b600062000f708262000f4f565b9050919050565b62000f8c62000f868262000daa565b62000f63565b82525050565b600062000fa0828562000f77565b60148201915062000fb2828462000f77565b6014820191508190509392505050565b600060408201905062000fd9600083018562000dbe565b62000fe8602083018462000dbe565b9392505050565b62000ffa8162000ea3565b82525050565b600060408201905062001017600083018562000dbe565b62001026602083018462000fef565b9392505050565b6000819050919050565b600067ffffffffffffffff82169050919050565b6000819050919050565b600062001076620010706200106a846200102d565b6200104b565b62001037565b9050919050565b620010888162001055565b82525050565b6000602082019050620010a560008301846200107d565b9291505056fe60806040523480156200001157600080fd5b5033600073ffffffffffffffffffffffffffffffffffffffff168173ffffffffffffffffffffffffffffffffffffffff1603620000885760006040517f1e4fbdf70000000000000000000000000000000000000000000000000000000081526004016200007f9190620001b0565b60405180910390fd5b6200009981620000a760201b60201c565b5060018081905550620001cd565b60008060009054906101000a900473ffffffffffffffffffffffffffffffffffffffff169050816000806101000a81548173ffffffffffffffffffffffffffffffffffffffff021916908373ffffffffffffffffffffffffffffffffffffffff1602179055508173ffffffffffffffffffffffffffffffffffffffff168173ffffffffffffffffffffffffffffffffffffffff167f8be0079c531659141344cd1fd0a4f28419497f9722a3daafe3b4186f6b6457e060405160405180910390a35050565b600073ffffffffffffffffffffffffffffffffffffffff82169050919050565b600062000198826200016b565b9050919050565b620001aa816200018b565b82525050565b6000602082019050620001c760008301846200019f565b92915050565b61141d80620001dd6000396000f3fe608060405234801561001057600080fd5b50600436106101425760003560e01c806370a08231116100b857806395d89b411161007c57806395d89b411461037c578063a9059cbb1461039a578063d505accf146103ca578063dd62ed3e146103e6578063f2fde38b14610416578063ff3d40cd1461043257610142565b806370a08231146102c3578063715018a6146102f35780637ecebe00146102fd57806389afcb441461032d5780638da5cb5b1461035e57610142565b806330adf81f1161010a57806330adf81f146101ff578063313ce5671461021d5780633644e5151461023b578063485cc955146102595780636442496f146102755780636a6278421461029357610142565b8063022c0d9f1461014757806306fdde0314610163578063095ea7b31461018157806318160ddd146101b157806323b872dd146101cf575b600080fd5b610161600480360381019061015c9190610cd9565b610450565b005b61016b6104dc565b6040516101789190610df1565b60405180910390f35b61019b60048036038101906101969190610e13565b610515565b6040516101a89190610e6e565b60405180910390f35b6101b9610586565b6040516101c69190610e98565b60405180910390f35b6101e960048036038101906101e49190610eb3565b61058b565b6040516101f69190610e6e565b60405180910390f35b6102076105fd565b6040516102149190610f1f565b60405180910390f35b610225610602565b6040516102329190610f56565b60405180910390f35b610243610607565b6040516102509190610f1f565b60405180910390f35b610273600480360381019061026e9190610f71565b61060c565b005b61027d610692565b60405161028a9190610fc0565b60405180910390f35b6102ad60048036038101906102a89190610fdb565b6106b8565b6040516102ba9190610e98565b60405180910390f35b6102dd60048036038101906102d89190610fdb565b610729565b6040516102ea9190610e98565b60405180910390f35b6102fb610730565b005b61031760048036038101906103129190610fdb565b610744565b6040516103249190610e98565b60405180910390f35b61034760048036038101906103429190610fdb565b61074b565b604051610355929190611008565b60405180910390f35b6103666107d4565b6040516103739190610fc0565b60405180910390f35b6103846107fd565b6040516103919190610df1565b60405180910390f35b6103b460048036038101906103af9190610e13565b610836565b6040516103c19190610e6e565b60405180910390f35b6103e460048036038101906103df9190611089565b6108a7565b005b61040060048036038101906103fb9190610f71565b610942565b60405161040d9190610e98565b60405180910390f35b610430600480360381019061042b9190610fdb565b61094a565b005b61043a6109d0565b6040516104479190610fc0565b60405180910390f35b6104586109f6565b610460610a3c565b8273ffffffffffffffffffffffffffffffffffffffff163373ffffffffffffffffffffffffffffffffffffffff167f5df1371c1cbfc281b44dcd5a86867802170fd3b52cba48fbe75e878ee06cfe11606f60de89896040516104c594939291906111ab565b60405180910390a36104d5610a7a565b5050505050565b6040518060400160405280600f81526020017f444c52204d6174636820546f6b656e000000000000000000000000000000000081525081565b60008273ffffffffffffffffffffffffffffffffffffffff163373ffffffffffffffffffffffffffffffffffffffff167f8c5be1e5ebec7d5bd14f71427d1e84f3dd0314c0f7b2291e5b200ac8c7c3b925846040516105749190610e98565b60405180910390a36001905092915050565b600090565b60008273ffffffffffffffffffffffffffffffffffffffff168473ffffffffffffffffffffffffffffffffffffffff167fddf252ad1be2c89b69c2b068fc378daa952ba7f163c4a11628f55a4df523b3ef846040516105ea9190610e98565b60405180910390a3600190509392505050565b600090565b601281565b600090565b81600260006101000a81548173ffffffffffffffffffffffffffffffffffffffff021916908373ffffffffffffffffffffffffffffffffffffffff16021790555080600360006101000a81548173ffffffffffffffffffffffffffffffffffffffff021916908373ffffffffffffffffffffffffffffffffffffffff1602179055505050565b600360009054906101000a900473ffffffffffffffffffffffffffffffffffffffff1681565b60006106c26109f6565b6106ca610a3c565b3373ffffffffffffffffffffffffffffffffffffffff167fa79a4f55c94e8dc99eae4b602507966d4e87197d97339c3876e82a75800cb68160016002604051610714929190611266565b60405180910390a2610724610a7a565b919050565b6000919050565b610738610a83565b6107426000610b0a565b565b6000919050565b6000806107566109f6565b61075e610a3c565b8273ffffffffffffffffffffffffffffffffffffffff163373ffffffffffffffffffffffffffffffffffffffff167fe9d3847a0b7f76c883dc54ff4b8250872af4c8c53eea8eb3f144af845087f732600b60166040516107bf929190611305565b60405180910390a36107cf610a7a565b915091565b60008060009054906101000a900473ffffffffffffffffffffffffffffffffffffffff16905090565b6040518060400160405280600381526020017f444c52000000000000000000000000000000000000000000000000000000000081525081565b60008273ffffffffffffffffffffffffffffffffffffffff163373ffffffffffffffffffffffffffffffffffffffff167fddf252ad1be2c89b69c2b068fc378daa952ba7f163c4a11628f55a4df523b3ef846040516108959190610e98565b60405180910390a36001905092915050565b6000801b8114806108ba57506000801b82145b806108c8575060008360ff16145b806108d35750428411155b508573ffffffffffffffffffffffffffffffffffffffff168773ffffffffffffffffffffffffffffffffffffffff167f8c5be1e5ebec7d5bd14f71427d1e84f3dd0314c0f7b2291e5b200ac8c7c3b925876040516109319190610e98565b60405180910390a350505050505050565b600092915050565b610952610a83565b600073ffffffffffffffffffffffffffffffffffffffff168173ffffffffffffffffffffffffffffffffffffffff16036109c45760006040517f1e4fbdf70000000000000000000000000000000000000000000000000000000081526004016109bb9190610fc0565b60405180910390fd5b6109cd81610b0a565b50565b600260009054906101000a900473ffffffffffffffffffffffffffffffffffffffff1681565b600260015403610a32576040517f3ee5aeb500000000000000000000000000000000000000000000000000000000815260040160405180910390fd5b6002600181905550565b7e15f12921c803767f984a1098dbe0b34fc42425d981af4c737daf112fcb9c7b6104576108ae604051610a709291906113be565b60405180910390a1565b60018081905550565b610a8b610bce565b73ffffffffffffffffffffffffffffffffffffffff16610aa96107d4565b73ffffffffffffffffffffffffffffffffffffffff1614610b0857610acc610bce565b6040517f118cdaa7000000000000000000000000000000000000000000000000000000008152600401610aff9190610fc0565b60405180910390fd5b565b60008060009054906101000a900473ffffffffffffffffffffffffffffffffffffffff169050816000806101000a81548173ffffffffffffffffffffffffffffffffffffffff021916908373ffffffffffffffffffffffffffffffffffffffff1602179055508173ffffffffffffffffffffffffffffffffffffffff168173ffffffffffffffffffffffffffffffffffffffff167f8be0079c531659141344cd1fd0a4f28419497f9722a3daafe3b4186f6b6457e060405160405180910390a35050565b600033905090565b600080fd5b600080fd5b6000819050919050565b610bf381610be0565b8114610bfe57600080fd5b50565b600081359050610c1081610bea565b92915050565b600073ffffffffffffffffffffffffffffffffffffffff82169050919050565b6000610c4182610c16565b9050919050565b610c5181610c36565b8114610c5c57600080fd5b50565b600081359050610c6e81610c48565b92915050565b600080fd5b600080fd5b600080fd5b60008083601f840112610c9957610c98610c74565b5b8235905067ffffffffffffffff811115610cb657610cb5610c79565b5b602083019150836001820283011115610cd257610cd1610c7e565b5b9250929050565b600080600080600060808688031215610cf557610cf4610bd6565b5b6000610d0388828901610c01565b9550506020610d1488828901610c01565b9450506040610d2588828901610c5f565b935050606086013567ffffffffffffffff811115610d4657610d45610bdb565b5b610d5288828901610c83565b92509250509295509295909350565b600081519050919050565b600082825260208201905092915050565b60005b83811015610d9b578082015181840152602081019050610d80565b60008484015250505050565b6000601f19601f8301169050919050565b6000610dc382610d61565b610dcd8185610d6c565b9350610ddd818560208601610d7d565b610de681610da7565b840191505092915050565b60006020820190508181036000830152610e0b8184610db8565b905092915050565b60008060408385031215610e2a57610e29610bd6565b5b6000610e3885828601610c5f565b9250506020610e4985828601610c01565b9150509250929050565b60008115159050919050565b610e6881610e53565b82525050565b6000602082019050610e836000830184610e5f565b92915050565b610e9281610be0565b82525050565b6000602082019050610ead6000830184610e89565b92915050565b600080600060608486031215610ecc57610ecb610bd6565b5b6000610eda86828701610c5f565b9350506020610eeb86828701610c5f565b9250506040610efc86828701610c01565b9150509250925092565b6000819050919050565b610f1981610f06565b82525050565b6000602082019050610f346000830184610f10565b92915050565b600060ff82169050919050565b610f5081610f3a565b82525050565b6000602082019050610f6b6000830184610f47565b92915050565b60008060408385031215610f8857610f87610bd6565b5b6000610f9685828601610c5f565b9250506020610fa785828601610c5f565b9150509250929050565b610fba81610c36565b82525050565b6000602082019050610fd56000830184610fb1565b92915050565b600060208284031215610ff157610ff0610bd6565b5b6000610fff84828501610c5f565b91505092915050565b600060408201905061101d6000830185610e89565b61102a6020830184610e89565b9392505050565b61103a81610f3a565b811461104557600080fd5b50565b60008135905061105781611031565b92915050565b61106681610f06565b811461107157600080fd5b50565b6000813590506110838161105d565b92915050565b600080600080600080600060e0888a0312156110a8576110a7610bd6565b5b60006110b68a828b01610c5f565b97505060206110c78a828b01610c5f565b96505060406110d88a828b01610c01565b95505060606110e98a828b01610c01565b94505060806110fa8a828b01611048565b93505060a061110b8a828b01611074565b92505060c061111c8a828b01611074565b91505092959891949750929550565b6000819050919050565b6000819050919050565b600061115a6111556111508461112b565b611135565b610be0565b9050919050565b61116a8161113f565b82525050565b6000819050919050565b600061119561119061118b84611170565b611135565b610be0565b9050919050565b6111a58161117a565b82525050565b60006080820190506111c06000830187611161565b6111cd602083018661119c565b6111da6040830185610e89565b6111e76060830184610e89565b95945050505050565b6000819050919050565b600061121561121061120b846111f0565b611135565b610be0565b9050919050565b611225816111fa565b82525050565b6000819050919050565b600061125061124b6112468461122b565b611135565b610be0565b9050919050565b61126081611235565b82525050565b600060408201905061127b600083018561121c565b6112886020830184611257565b9392505050565b6000819050919050565b60006112b46112af6112aa8461128f565b611135565b610be0565b9050919050565b6112c481611299565b82525050565b6000819050919050565b60006112ef6112ea6112e5846112ca565b611135565b610be0565b9050919050565b6112ff816112d4565b82525050565b600060408201905061131a60008301856112bb565b61132760208301846112f6565b9392505050565b6000819050919050565b60006dffffffffffffffffffffffffffff82169050919050565b600061136d6113686113638461132e565b611135565b611338565b9050919050565b61137d81611352565b82525050565b6000819050919050565b60006113a86113a361139e84611383565b611135565b611338565b9050919050565b6113b88161138d565b82525050565b60006040820190506113d36000830185611374565b6113e060208301846113af565b939250505056fea264697066735822122053705775e40d0463d1a49ec2beac112809f7e014105fc45e626b559515dc3ff364736f6c63430008160033a26469706673582212206ca9f5e8115ae72e449d36f438dd96e4e4c8ccf32994a3d7244f1907175c09aa64736f6c63430008160033",
  "linkReferences": {},
  "deployedLinkReferences": {}
}